{"abi":[{"type":"function","name":"artists","inputs":[{"name":"","type":"uint256","internalType":"uint256"}],"outputs":[{"name":"name","type":"bytes32","internalType":"bytes32"},{"name":"artistType","type":"uint256","internalType":"uint256"},{"name":"totalTicketsSold","type":"uint256","internalType":"uint256"},{"name":"owner","type":"address","internalType":"address payable"}],"stateMutability":"view"},{"type":"function","name":"buySecondHandTicket","inputs":[{"name":"_ticketId","type":"uint256","internalType":"uint256"}],"outputs":[],"stateMutability":"payable"},{"type":"function","name":"buyTicket","inputs":[{"name":"_concertId","type":"uint256","internalType":"uint256"}],"outputs":[],"stateMutability":"payable"},{"type":"function","name":"cashOut","inputs":[{"name":"_concertId","type":"uint256","internalType":"uint256"}],"outputs":[],"stateMutability":"nonpayable"},{"type":"function","name":"concerts","inputs":[{"name":"","type":"uint256","internalType":"uint256"}],"outputs":[{"name":"id","type":"uint256","internalType":"uint256"},{"name":"artistId","type":"uint256","internalType":"uint256"},{"name":"venueId","type":"uint256","internalType":"uint256"},{"name":"concertDate","type":"uint256","internalType":"uint256"},{"name":"ticketPrice","type":"uint256","internalType":"uint256"},{"name":"validatedByArtist","type":"bool","internalType":"bool"},{"name":"validatedByVenue","type":"bool","internalType":"bool"},{"name":"totalSold","type":"uint256","internalType":"uint256"},{"name":"isCashedOut","type":"bool","internalType":"bool"}],"stateMutability":"view"},{"type":"function","name":"createArtist","inputs":[{"name":"_name","type":"bytes32","internalType":"bytes32"},{"name":"_type","type":"uint256","internalType":"uint256"}],"outputs":[],"stateMutability":"nonpayable"},{"type":"function","name":"createConcert","inputs":[{"name":"_artistId","type":"uint256","internalType":"uint256"},{"name":"_venueId","type":"uint256","internalType":"uint256"},{"name":"_date","type":"uint256","internalType":"uint256"},{"name":"_price","type":"uint256","internalType":"uint256"}],"outputs":[],"stateMutability":"nonpayable"},{"type":"function","name":"createRedeemableTicket","inputs":[{"name":"_concertId","type":"uint256","internalType":"uint256"},{"name":"_secretHash","type":"bytes32","internalType":"bytes32"}],"outputs":[],"stateMutability":"nonpayable"},{"type":"function","name":"createVenue","inputs":[{"name":"_name","type":"bytes32","internalType":"bytes32"},{"name":"_capacity","type":"uint256","internalType":"uint256"},{"name":"_commission","type":"uint256","internalType":"uint256"}],"outputs":[],"stateMutability":"nonpayable"},{"type":"function","name":"emitTicket","inputs":[{"name":"_concertId","type":"uint256","internalType":"uint256"},{"name":"_receiver","type":"address","internalType":"address"}],"outputs":[],"stateMutability":"nonpayable"},{"type":"function","name":"modifyArtist","inputs":[{"name":"_id","type":"uint256","internalType":"uint256"},{"name":"_newName","type":"bytes32","internalType":"bytes32"},{"name":"_newType","type":"uint256","internalType":"uint256"}],"outputs":[],"stateMutability":"nonpayable"},{"type":"function","name":"modifyVenue","inputs":[{"name":"_id","type":"uint256","internalType":"uint256"},{"name":"_newName","type":"bytes32","internalType":"bytes32"},{"name":"_newCapacity","type":"uint256","internalType":"uint256"},{"name":"_newCom","type":"uint256","internalType":"uint256"}],"outputs":[],"stateMutability":"nonpayable"},{"type":"function","name":"nextArtistId","inputs":[],"outputs":[{"name":"","type":"uint256","internalType":"uint256"}],"stateMutability":"view"},{"type":"function","name":"nextConcertId","inputs":[],"outputs":[{"name":"","type":"uint256","internalType":"uint256"}],"stateMutability":"view"},{"type":"function","name":"nextTicketId","inputs":[],"outputs":[{"name":"","type":"uint256","internalType":"uint256"}],"stateMutability":"view"},{"type":"function","name":"nextVenueId","inputs":[],"outputs":[{"name":"","type":"uint256","internalType":"uint256"}],"stateMutability":"view"},{"type":"function","name":"offerTicketForSale","inputs":[{"name":"_ticketId","type":"uint256","internalType":"uint256"},{"name":"_price","type":"uint256","internalType":"uint256"}],"outputs":[],"stateMutability":"nonpayable"},{"type":"function","name":"redeemTicket","inputs":[{"name":"_password","type":"string","internalType":"string"}],"outputs":[],"stateMutability":"nonpayable"},{"type":"function","name":"safeTransfer","inputs":[{"name":"_ticketId","type":"uint256","internalType":"uint256"},{"name":"_newOwner","type":"address","internalType":"address"}],"outputs":[],"stateMutability":"payable"},{"type":"function","name":"ticketOffers","inputs":[{"name":"","type":"uint256","internalType":"uint256"}],"outputs":[{"name":"isForSale","type":"bool","internalType":"bool"},{"name":"price","type":"uint256","internalType":"uint256"}],"stateMutability":"view"},{"type":"function","name":"tickets","inputs":[{"name":"","type":"uint256","internalType":"uint256"}],"outputs":[{"name":"concertId","type":"uint256","internalType":"uint256"},{"name":"owner","type":"address","internalType":"address"},{"name":"isUsed","type":"bool","internalType":"bool"},{"name":"purchasePrice","type":"uint256","internalType":"uint256"}],"stateMutability":"view"},{"type":"function","name":"transferTicket","inputs":[{"name":"_ticketId","type":"uint256","internalType":"uint256"},{"name":"_to","type":"address","internalType":"address"}],"outputs":[],"stateMutability":"payable"},{"type":"function","name":"useTicket","inputs":[{"name":"_ticketId","type":"uint256","internalType":"uint256"}],"outputs":[],"stateMutability":"nonpayable"},{"type":"function","name":"validateConcertArtist","inputs":[{"name":"_concertId","type":"uint256","internalType":"uint256"}],"outputs":[],"stateMutability":"nonpayable"},{"type":"function","name":"validateConcertVenue","inputs":[{"name":"_concertId","type":"uint256","internalType":"uint256"}],"outputs":[],"stateMutability":"nonpayable"},{"type":"function","name":"venues","inputs":[{"name":"","type":"uint256","internalType":"uint256"}],"outputs":[{"name":"name","type":"bytes32","internalType":"bytes32"},{"name":"capacity","type":"uint256","internalType":"uint256"},{"name":"commissionPercent","type":"uint256","internalType":"uint256"},{"name":"owner","type":"address","internalType":"address payable"}],"stateMutability":"view"}],"bytecode":{"object":"0x608060405260016004556001600555600160065560016007553480156022575f5ffd5b50612e11806100305f395ff3fe608060405260043610610180575f3560e01c8063640c4909116100d05780639a80b35e11610089578063e03536f311610063578063e03536f31461054e578063e62e4f8d14610576578063f2a30a641461059e578063fd514606146105c657610180565b80639a80b35e146104a3578063beafe50c146104cb578063cd7e10c11461050f57610180565b8063640c4909146103d5578063679ebf1a146103f157806367aea6e81461040d57806367dd74ca146104355780636874208c14610451578063965e63dc1461047b57610180565b80633c4e2be41161013d57806350b447121161011757806350b447121461031c57806359cb327a1461035b5780635c7b79f5146103835780636031a52f146103ab57610180565b80633c4e2be41461028f5780633fb5710c146102b7578063486ff9ae146102f457610180565b806302daf12f146101845780630666786c146101c357806317606737146101eb57806326606448146102135780632c1037bf1461023b5780632fd0f12a14610265575b5f5ffd5b34801561018f575f5ffd5b506101aa60048036038101906101a59190611c36565b6105e2565b6040516101ba9493929190611cc7565b60405180910390f35b3480156101ce575f5ffd5b506101e960048036038101906101e49190611c36565b61062d565b005b3480156101f6575f5ffd5b50610211600480360381019061020c9190611d0a565b610705565b005b34801561021e575f5ffd5b5061023960048036038101906102349190611c36565b610849565b005b348015610246575f5ffd5b5061024f610ab8565b60405161025c9190611d48565b60405180910390f35b348015610270575f5ffd5b50610279610abe565b6040516102869190611d48565b60405180910390f35b34801561029a575f5ffd5b506102b560048036038101906102b09190611d8b565b610ac4565b005b3480156102c2575f5ffd5b506102dd60048036038101906102d89190611c36565b610bb5565b6040516102eb929190611e09565b60405180910390f35b3480156102ff575f5ffd5b5061031a60048036038101906103159190611e6b565b610be1565b005b348015610327575f5ffd5b50610342600480360381019061033d9190611c36565b610d13565b6040516103529493929190611eb8565b60405180910390f35b348015610366575f5ffd5b50610381600480360381019061037c9190611efb565b610d6b565b005b34801561038e575f5ffd5b506103a960048036038101906103a49190611c36565b610e7a565b005b3480156103b6575f5ffd5b506103bf61113a565b6040516103cc9190611d48565b60405180910390f35b6103ef60048036038101906103ea9190611c36565b611140565b005b61040b60048036038101906104069190611e6b565b611305565b005b348015610418575f5ffd5b50610433600480360381019061042e9190612087565b6113c2565b005b61044f600480360381019061044a9190611c36565b6114da565b005b34801561045c575f5ffd5b5061046561160b565b6040516104729190611d48565b60405180910390f35b348015610486575f5ffd5b506104a1600480360381019061049c91906120ce565b611611565b005b3480156104ae575f5ffd5b506104c960048036038101906104c4919061210c565b61162b565b005b3480156104d6575f5ffd5b506104f160048036038101906104ec9190611c36565b6116ff565b6040516105069998979695949392919061215c565b60405180910390f35b34801561051a575f5ffd5b5061053560048036038101906105309190611c36565b61176e565b6040516105459493929190611cc7565b60405180910390f35b348015610559575f5ffd5b50610574600480360381019061056f91906121e7565b6117b8565b005b348015610581575f5ffd5b5061059c6004803603810190610597919061224b565b6118cc565b005b3480156105a9575f5ffd5b506105c460048036038101906105bf9190611c36565b611995565b005b6105e060048036038101906105db9190611e6b565b611a6f565b005b6001602052805f5260405f205f91509050805f015490806001015490806002015490806003015f9054906101000a900473ffffffffffffffffffffffffffffffffffffffff16905084565b5f60025f8381526020019081526020015f2090505f5f826001015481526020019081526020015f206003015f9054906101000a900473ffffffffffffffffffffffffffffffffffffffff1673ffffffffffffffffffffffffffffffffffffffff163373ffffffffffffffffffffffffffffffffffffffff16146106e5576040517f08c379a00000000000000000000000000000000000000000000000000000000081526004016106dc906122e3565b60405180910390fd5b6001816005015f6101000a81548160ff0219169083151502179055505050565b5f60035f8481526020019081526020015f209050806001015f9054906101000a900473ffffffffffffffffffffffffffffffffffffffff1673ffffffffffffffffffffffffffffffffffffffff163373ffffffffffffffffffffffffffffffffffffffff16146107aa576040517f08c379a00000000000000000000000000000000000000000000000000000000081526004016107a19061234b565b60405180910390fd5b80600201548211156107f1576040517f08c379a00000000000000000000000000000000000000000000000000000000081526004016107e8906123d9565b60405180910390fd5b604051806040016040528060011515815260200183815250600a5f8581526020019081526020015f205f820151815f015f6101000a81548160ff02191690831515021790555060208201518160010155905050505050565b5f60035f8381526020019081526020015f209050806001015f9054906101000a900473ffffffffffffffffffffffffffffffffffffffff1673ffffffffffffffffffffffffffffffffffffffff163373ffffffffffffffffffffffffffffffffffffffff16146108ee576040517f08c379a00000000000000000000000000000000000000000000000000000000081526004016108e59061234b565b60405180910390fd5b8060010160149054906101000a900460ff1615610940576040517f08c379a000000000000000000000000000000000000000000000000000000000815260040161093790612441565b60405180910390fd5b5f60025f835f015481526020019081526020015f20604051806101200160405290815f820154815260200160018201548152602001600282015481526020016003820154815260200160048201548152602001600582015f9054906101000a900460ff161515151581526020016005820160019054906101000a900460ff1615151515815260200160068201548152602001600782015f9054906101000a900460ff1615151515815250509050620151808160600151610a00919061248c565b421015610a42576040517f08c379a0000000000000000000000000000000000000000000000000000000008152600401610a3990612509565b60405180910390fd5b620151808160600151610a559190612527565b4210610a96576040517f08c379a0000000000000000000000000000000000000000000000000000000008152600401610a8d906125a4565b60405180910390fd5b60018260010160146101000a81548160ff021916908315150217905550505050565b60055481565b60045481565b60015f8581526020019081526020015f206003015f9054906101000a900473ffffffffffffffffffffffffffffffffffffffff1673ffffffffffffffffffffffffffffffffffffffff163373ffffffffffffffffffffffffffffffffffffffff1614610b65576040517f08c379a0000000000000000000000000000000000000000000000000000000008152600401610b5c9061260c565b60405180910390fd5b8260015f8681526020019081526020015f205f01819055508160015f8681526020019081526020015f20600101819055508060015f8681526020019081526020015f206002018190555050505050565b600a602052805f5260405f205f91509050805f015f9054906101000a900460ff16908060010154905082565b5f60025f8481526020019081526020015f2090505f5f826001015481526020019081526020015f206003015f9054906101000a900473ffffffffffffffffffffffffffffffffffffffff1673ffffffffffffffffffffffffffffffffffffffff163373ffffffffffffffffffffffffffffffffffffffff1614610c99576040517f08c379a0000000000000000000000000000000000000000000000000000000008152600401610c9090612674565b60405180910390fd5b806005015f9054906101000a900460ff168015610cc457508060050160019054906101000a900460ff165b610d03576040517f08c379a0000000000000000000000000000000000000000000000000000000008152600401610cfa906126dc565b60405180910390fd5b610d0e83835f611aaa565b505050565b6003602052805f5260405f205f91509050805f015490806001015f9054906101000a900473ffffffffffffffffffffffffffffffffffffffff16908060010160149054906101000a900460ff16908060020154905084565b6064811115610daf576040517f08c379a0000000000000000000000000000000000000000000000000000000008152600401610da690612744565b60405180910390fd5b60405180608001604052808481526020018381526020018281526020013373ffffffffffffffffffffffffffffffffffffffff1681525060015f60055481526020019081526020015f205f820151815f015560208201518160010155604082015181600201556060820151816003015f6101000a81548173ffffffffffffffffffffffffffffffffffffffff021916908373ffffffffffffffffffffffffffffffffffffffff16021790555090505060055f815480929190610e7090612762565b9190505550505050565b5f60025f8381526020019081526020015f209050806007015f9054906101000a900460ff1615610edf576040517f08c379a0000000000000000000000000000000000000000000000000000000008152600401610ed6906127f3565b60405180910390fd5b80600301544211610f25576040517f08c379a0000000000000000000000000000000000000000000000000000000008152600401610f1c9061285b565b60405180910390fd5b5f5f826001015481526020019081526020015f206003015f9054906101000a900473ffffffffffffffffffffffffffffffffffffffff1673ffffffffffffffffffffffffffffffffffffffff163373ffffffffffffffffffffffffffffffffffffffff1614610fc9576040517f08c379a0000000000000000000000000000000000000000000000000000000008152600401610fc0906128c3565b60405180910390fd5b6001816007015f6101000a81548160ff0219169083151502179055505f81600601548260040154610ffa91906128e1565b90505f606460015f856002015481526020019081526020015f20600201548361102391906128e1565b61102d919061294f565b90505f818361103c919061248c565b905060015f856002015481526020019081526020015f206003015f9054906101000a900473ffffffffffffffffffffffffffffffffffffffff1673ffffffffffffffffffffffffffffffffffffffff166108fc8390811502906040515f60405180830381858888f193505050501580156110b8573d5f5f3e3d5ffd5b505f5f856001015481526020019081526020015f206003015f9054906101000a900473ffffffffffffffffffffffffffffffffffffffff1673ffffffffffffffffffffffffffffffffffffffff166108fc8290811502906040515f60405180830381858888f19350505050158015611132573d5f5f3e3d5ffd5b505050505050565b60075481565b5f600a5f8381526020019081526020015f206040518060400160405290815f82015f9054906101000a900460ff161515151581526020016001820154815250509050805f01516111c5576040517f08c379a00000000000000000000000000000000000000000000000000000000081526004016111bc906129c9565b60405180910390fd5b8060200151341461120b576040517f08c379a000000000000000000000000000000000000000000000000000000000815260040161120290612a31565b60405180910390fd5b5f60035f8481526020019081526020015f2090505f816001015f9054906101000a900473ffffffffffffffffffffffffffffffffffffffff16905033826001015f6101000a81548173ffffffffffffffffffffffffffffffffffffffff021916908373ffffffffffffffffffffffffffffffffffffffff1602179055503482600201819055505f600a5f8681526020019081526020015f205f015f6101000a81548160ff0219169083151502179055508073ffffffffffffffffffffffffffffffffffffffff166108fc3490811502906040515f60405180830381858888f193505050501580156112fe573d5f5f3e3d5ffd5b5050505050565b5f60035f8481526020019081526020015f2090508173ffffffffffffffffffffffffffffffffffffffff163373ffffffffffffffffffffffffffffffffffffffff1614611387576040517f08c379a000000000000000000000000000000000000000000000000000000000815260040161137e90612abf565b60405180910390fd5b6040517f08c379a00000000000000000000000000000000000000000000000000000000081526004016113b990612b27565b60405180910390fd5b5f816040516020016113d49190612b97565b6040516020818303038152906040528051906020012090505f60085f8381526020019081526020015f205490505f8103611443576040517f08c379a000000000000000000000000000000000000000000000000000000000815260040161143a90612bf7565b60405180910390fd5b60095f8381526020019081526020015f205f9054906101000a900460ff16156114a1576040517f08c379a000000000000000000000000000000000000000000000000000000000815260040161149890612c5f565b60405180910390fd5b600160095f8481526020019081526020015f205f6101000a81548160ff0219169083151502179055506114d581335f611aaa565b505050565b5f60025f8381526020019081526020015f209050806005015f9054906101000a900460ff16801561151957508060050160019054906101000a900460ff165b611558576040517f08c379a000000000000000000000000000000000000000000000000000000000815260040161154f906126dc565b60405180910390fd5b8060040154341461159e576040517f08c379a000000000000000000000000000000000000000000000000000000000815260040161159590612cc7565b60405180910390fd5b60015f826002015481526020019081526020015f20600101548160060154106115fc576040517f08c379a00000000000000000000000000000000000000000000000000000000081526004016115f390612d2f565b60405180910390fd5b611607823334611aaa565b5050565b60065481565b8160085f8381526020019081526020015f20819055505050565b5f5f8481526020019081526020015f206003015f9054906101000a900473ffffffffffffffffffffffffffffffffffffffff1673ffffffffffffffffffffffffffffffffffffffff163373ffffffffffffffffffffffffffffffffffffffff16146116cb576040517f08c379a00000000000000000000000000000000000000000000000000000000081526004016116c2906122e3565b60405180910390fd5b815f5f8581526020019081526020015f205f0181905550805f5f8581526020019081526020015f2060010181905550505050565b6002602052805f5260405f205f91509050805f015490806001015490806002015490806003015490806004015490806005015f9054906101000a900460ff16908060050160019054906101000a900460ff1690806006015490806007015f9054906101000a900460ff16905089565b5f602052805f5260405f205f91509050805f015490806001015490806002015490806003015f9054906101000a900473ffffffffffffffffffffffffffffffffffffffff16905084565b60405180610120016040528060065481526020018581526020018481526020018381526020018281526020015f151581526020015f151581526020015f81526020015f151581525060025f60065481526020019081526020015f205f820151815f01556020820151816001015560408201518160020155606082015181600301556080820151816004015560a0820151816005015f6101000a81548160ff02191690831515021790555060c08201518160050160016101000a81548160ff02191690831515021790555060e08201518160060155610100820151816007015f6101000a81548160ff02191690831515021790555090505060065f8154809291906118c190612762565b919050555050505050565b60405180608001604052808381526020018281526020015f81526020013373ffffffffffffffffffffffffffffffffffffffff168152505f5f60045481526020019081526020015f205f820151815f015560208201518160010155604082015181600201556060820151816003015f6101000a81548173ffffffffffffffffffffffffffffffffffffffff021916908373ffffffffffffffffffffffffffffffffffffffff16021790555090505060045f81548092919061198c90612762565b91905055505050565b5f60025f8381526020019081526020015f20905060015f826002015481526020019081526020015f206003015f9054906101000a900473ffffffffffffffffffffffffffffffffffffffff1673ffffffffffffffffffffffffffffffffffffffff163373ffffffffffffffffffffffffffffffffffffffff1614611a4e576040517f08c379a0000000000000000000000000000000000000000000000000000000008152600401611a459061260c565b60405180910390fd5b60018160050160016101000a81548160ff0219169083151502179055505050565b6040517f08c379a0000000000000000000000000000000000000000000000000000000008152600401611aa190612dbd565b60405180910390fd5b60405180608001604052808481526020018373ffffffffffffffffffffffffffffffffffffffff1681526020015f151581526020018281525060035f60075481526020019081526020015f205f820151815f01556020820151816001015f6101000a81548173ffffffffffffffffffffffffffffffffffffffff021916908373ffffffffffffffffffffffffffffffffffffffff16021790555060408201518160010160146101000a81548160ff0219169083151502179055506060820151816002015590505060025f8481526020019081526020015f206006015f815480929190611b9590612762565b91905055505f5f60025f8681526020019081526020015f206001015481526020019081526020015f206002015f815480929190611bd190612762565b919050555060075f815480929190611be890612762565b9190505550505050565b5f604051905090565b5f5ffd5b5f5ffd5b5f819050919050565b611c1581611c03565b8114611c1f575f5ffd5b50565b5f81359050611c3081611c0c565b92915050565b5f60208284031215611c4b57611c4a611bfb565b5b5f611c5884828501611c22565b91505092915050565b5f819050919050565b611c7381611c61565b82525050565b611c8281611c03565b82525050565b5f73ffffffffffffffffffffffffffffffffffffffff82169050919050565b5f611cb182611c88565b9050919050565b611cc181611ca7565b82525050565b5f608082019050611cda5f830187611c6a565b611ce76020830186611c79565b611cf46040830185611c79565b611d016060830184611cb8565b95945050505050565b5f5f60408385031215611d2057611d1f611bfb565b5b5f611d2d85828601611c22565b9250506020611d3e85828601611c22565b9150509250929050565b5f602082019050611d5b5f830184611c79565b92915050565b611d6a81611c61565b8114611d74575f5ffd5b50565b5f81359050611d8581611d61565b92915050565b5f5f5f5f60808587031215611da357611da2611bfb565b5b5f611db087828801611c22565b9450506020611dc187828801611d77565b9350506040611dd287828801611c22565b9250506060611de387828801611c22565b91505092959194509250565b5f8115159050919050565b611e0381611def565b82525050565b5f604082019050611e1c5f830185611dfa565b611e296020830184611c79565b9392505050565b5f611e3a82611c88565b9050919050565b611e4a81611e30565b8114611e54575f5ffd5b50565b5f81359050611e6581611e41565b92915050565b5f5f60408385031215611e8157611e80611bfb565b5b5f611e8e85828601611c22565b9250506020611e9f85828601611e57565b9150509250929050565b611eb281611e30565b82525050565b5f608082019050611ecb5f830187611c79565b611ed86020830186611ea9565b611ee56040830185611dfa565b611ef26060830184611c79565b95945050505050565b5f5f5f60608486031215611f1257611f11611bfb565b5b5f611f1f86828701611d77565b9350506020611f3086828701611c22565b9250506040611f4186828701611c22565b9150509250925092565b5f5ffd5b5f5ffd5b5f601f19601f8301169050919050565b7f4e487b71000000000000000000000000000000000000000000000000000000005f52604160045260245ffd5b611f9982611f53565b810181811067ffffffffffffffff82111715611fb857611fb7611f63565b5b80604052505050565b5f611fca611bf2565b9050611fd68282611f90565b919050565b5f67ffffffffffffffff821115611ff557611ff4611f63565b5b611ffe82611f53565b9050602081019050919050565b828183375f83830152505050565b5f61202b61202684611fdb565b611fc1565b90508281526020810184848401111561204757612046611f4f565b5b61205284828561200b565b509392505050565b5f82601f83011261206e5761206d611f4b565b5b813561207e848260208601612019565b91505092915050565b5f6020828403121561209c5761209b611bfb565b5b5f82013567ffffffffffffffff8111156120b9576120b8611bff565b5b6120c58482850161205a565b91505092915050565b5f5f604083850312156120e4576120e3611bfb565b5b5f6120f185828601611c22565b925050602061210285828601611d77565b9150509250929050565b5f5f5f6060848603121561212357612122611bfb565b5b5f61213086828701611c22565b935050602061214186828701611d77565b925050604061215286828701611c22565b9150509250925092565b5f610120820190506121705f83018c611c79565b61217d602083018b611c79565b61218a604083018a611c79565b6121976060830189611c79565b6121a46080830188611c79565b6121b160a0830187611dfa565b6121be60c0830186611dfa565b6121cb60e0830185611c79565b6121d9610100830184611dfa565b9a9950505050505050505050565b5f5f5f5f608085870312156121ff576121fe611bfb565b5b5f61220c87828801611c22565b945050602061221d87828801611c22565b935050604061222e87828801611c22565b925050606061223f87828801611c22565b91505092959194509250565b5f5f6040838503121561226157612260611bfb565b5b5f61226e85828601611d77565b925050602061227f85828601611c22565b9150509250929050565b5f82825260208201905092915050565b7f4e6f7420617274697374206f776e6572000000000000000000000000000000005f82015250565b5f6122cd601083612289565b91506122d882612299565b602082019050919050565b5f6020820190508181035f8301526122fa816122c1565b9050919050565b7f4e6f74206f776e657200000000000000000000000000000000000000000000005f82015250565b5f612335600983612289565b915061234082612301565b602082019050919050565b5f6020820190508181035f83015261236281612329565b9050919050565b7f507269636520746f6f206869676820285363616c70696e672070726f746563745f8201527f696f6e2900000000000000000000000000000000000000000000000000000000602082015250565b5f6123c3602483612289565b91506123ce82612369565b604082019050919050565b5f6020820190508181035f8301526123f0816123b7565b9050919050565b7f416c7265616479207573656400000000000000000000000000000000000000005f82015250565b5f61242b600c83612289565b9150612436826123f7565b602082019050919050565b5f6020820190508181035f8301526124588161241f565b9050919050565b7f4e487b71000000000000000000000000000000000000000000000000000000005f52601160045260245ffd5b5f61249682611c03565b91506124a183611c03565b92508282039050818111156124b9576124b861245f565b5b92915050565b7f546f6f206561726c7900000000000000000000000000000000000000000000005f82015250565b5f6124f3600983612289565b91506124fe826124bf565b602082019050919050565b5f6020820190508181035f830152612520816124e7565b9050919050565b5f61253182611c03565b915061253c83611c03565b92508282019050808211156125545761255361245f565b5b92915050565b7f436f6e636572742066696e6973686564000000000000000000000000000000005f82015250565b5f61258e601083612289565b91506125998261255a565b602082019050919050565b5f6020820190508181035f8301526125bb81612582565b9050919050565b7f4e6f742076656e7565206f776e657200000000000000000000000000000000005f82015250565b5f6125f6600f83612289565b9150612601826125c2565b602082019050919050565b5f6020820190508181035f830152612623816125ea565b9050919050565b7f4f6e6c79206172746973742063616e20656d69740000000000000000000000005f82015250565b5f61265e601483612289565b91506126698261262a565b602082019050919050565b5f6020820190508181035f83015261268b81612652565b9050919050565b7f436f6e63657274206e6f742076616c69646174656400000000000000000000005f82015250565b5f6126c6601583612289565b91506126d182612692565b602082019050919050565b5f6020820190508181035f8301526126f3816126ba565b9050919050565b7f436f6d6d697373696f6e20746f6f2068696768000000000000000000000000005f82015250565b5f61272e601383612289565b9150612739826126fa565b602082019050919050565b5f6020820190508181035f83015261275b81612722565b9050919050565b5f61276c82611c03565b91507fffffffffffffffffffffffffffffffffffffffffffffffffffffffffffffffff820361279e5761279d61245f565b5b600182019050919050565b7f416c726561647920636173686564206f757400000000000000000000000000005f82015250565b5f6127dd601283612289565b91506127e8826127a9565b602082019050919050565b5f6020820190508181035f83015261280a816127d1565b9050919050565b7f436f6e63657274206e6f742068617070656e65642079657400000000000000005f82015250565b5f612845601883612289565b915061285082612811565b602082019050919050565b5f6020820190508181035f83015261287281612839565b9050919050565b7f4f6e6c79206172746973742063616e207472696767657220636173686f7574005f82015250565b5f6128ad601f83612289565b91506128b882612879565b602082019050919050565b5f6020820190508181035f8301526128da816128a1565b9050919050565b5f6128eb82611c03565b91506128f683611c03565b925082820261290481611c03565b9150828204841483151761291b5761291a61245f565b5b5092915050565b7f4e487b71000000000000000000000000000000000000000000000000000000005f52601260045260245ffd5b5f61295982611c03565b915061296483611c03565b92508261297457612973612922565b5b828204905092915050565b7f4e6f7420666f722073616c6500000000000000000000000000000000000000005f82015250565b5f6129b3600c83612289565b91506129be8261297f565b602082019050919050565b5f6020820190508181035f8301526129e0816129a7565b9050919050565b7f57726f6e672070726963650000000000000000000000000000000000000000005f82015250565b5f612a1b600b83612289565b9150612a26826129e7565b602082019050919050565b5f6020820190508181035f830152612a4881612a0f565b9050919050565b7f427579657220696e697469617465732074726164652077697468207061796d655f8201527f6e74000000000000000000000000000000000000000000000000000000000000602082015250565b5f612aa9602283612289565b9150612ab482612a4f565b604082019050919050565b5f6020820190508181035f830152612ad681612a9d565b9050919050565b7f55736520736166655472616e7366657220696e737465616400000000000000005f82015250565b5f612b11601883612289565b9150612b1c82612add565b602082019050919050565b5f6020820190508181035f830152612b3e81612b05565b9050919050565b5f81519050919050565b5f81905092915050565b8281835e5f83830152505050565b5f612b7182612b45565b612b7b8185612b4f565b9350612b8b818560208601612b59565b80840191505092915050565b5f612ba28284612b67565b915081905092915050565b7f496e76616c696420636f646500000000000000000000000000000000000000005f82015250565b5f612be1600c83612289565b9150612bec82612bad565b602082019050919050565b5f6020820190508181035f830152612c0e81612bd5565b9050919050565b7f436f646520616c726561647920757365640000000000000000000000000000005f82015250565b5f612c49601183612289565b9150612c5482612c15565b602082019050919050565b5f6020820190508181035f830152612c7681612c3d565b9050919050565b7f496e636f727265637420707269636500000000000000000000000000000000005f82015250565b5f612cb1600f83612289565b9150612cbc82612c7d565b602082019050919050565b5f6020820190508181035f830152612cde81612ca5565b9050919050565b7f536f6c64206f75740000000000000000000000000000000000000000000000005f82015250565b5f612d19600883612289565b9150612d2482612ce5565b602082019050919050565b5f6020820190508181035f830152612d4681612d0d565b9050919050565b7f436f6d706c65786974793a207265717569726573203220737465707320284f665f8201527f6665722f42757929000000000000000000000000000000000000000000000000602082015250565b5f612da7602883612289565b9150612db282612d4d565b604082019050919050565b5f6020820190508181035f830152612dd481612d9b565b905091905056fea26469706673582212209d0250e7cae7b0a2fc4c5558e6961d2bfa665bd4fb74dc70ea0a33a72131c7c864736f6c634300081e0033","linkReferences":{}},"methodIdentifiers":{"artists(uint256)":"cd7e10c1","buySecondHandTicket(uint256)":"640c4909","buyTicket(uint256)":"67dd74ca","cashOut(uint256)":"5c7b79f5","concerts(uint256)":"beafe50c","createArtist(bytes32,uint256)":"e62e4f8d","createConcert(uint256,uint256,uint256,uint256)":"e03536f3","createRedeemableTicket(uint256,bytes32)":"965e63dc","createVenue(bytes32,uint256,uint256)":"59cb327a","emitTicket(uint256,address)":"486ff9ae","modifyArtist(uint256,bytes32,uint256)":"9a80b35e","modifyVenue(uint256,bytes32,uint256,uint256)":"3c4e2be4","nextArtistId()":"2fd0f12a","nextConcertId()":"6874208c","nextTicketId()":"6031a52f","nextVenueId()":"2c1037bf","offerTicketForSale(uint256,uint256)":"17606737","redeemTicket(string)":"67aea6e8","safeTransfer(uint256,address)":"fd514606","ticketOffers(uint256)":"3fb5710c","tickets(uint256)":"50b44712","transferTicket(uint256,address)":"679ebf1a","useTicket(uint256)":"26606448","validateConcertArtist(uint256)":"0666786c","validateConcertVenue(uint256)":"f2a30a64","venues(uint256)":"02daf12f"},"id":0}